:100000000C943A000C9457000C9457000C94210166
:100010000C9457000C94D5000C9457000C94570086
:100020000C9457000C9457000C9457000C945700F4
:100030000C9457000C9457000C9457000C945700E4
:100040000C9457000C9457000C94E5010C94570045
:100050000C9457000C9457000C9457000C945700C4
:100060000C9457000C9457006364696E6F7073753D
:1000700078585B0011241FBECFEFD8E0DEBFCDBFA4
:1000800011E0A0E0B1E0E0E1FDE102C005900D92D9
:10009000A234B107D9F721E0A2E4B1E001C01D927A
:1000A000A338B207E1F70E94A1020C94860E0C94CB
:1000B0000000419A85E38A95F1F700004198089580
:1000C0009091C00095FFFCCF8093C60008950F93D8
:1000D0001F93CF93DF938C0180E40E946000C0E007
:1000E000D0E0F80101900020E9F73197E01BF10B17
:1000F000D801AC0FBD1FCE17DF0738F48C918032CA
:10010000D1F30E9460002196ECCF84E2DF91CF9181
:100110001F910F910C946000529A5A989093C500C9
:100120008093C400089505966AE070E00E948B06F3
:100130006115710539F085E38A95F1F7000061508A
:100140007109F6CF08950F931F93CF93DF93EC01BE
:100150009C0140E050E060E472E48FE090E00E9497
:100160009F0656954795379527958901209751F019
:100170002D9AC8010E9493002D98C8010E949300F7
:100180002197F4CFDF91CF911F910F910895BC017A
:10019000882777FD8095982F0E94270726E933E46A
:1001A0004BE85DE30E948F0708951F920F920FB6F0
:1001B0000F9211245F936F937F938F939F93AF93CD
:1001C000BF938091000190910101019690930101EC
:1001D00080930001809100019091010162E070E044
:1001E0000E948B060197A1F4109285001092840062
:1001F000809181008860809381008091810083607C
:100200008093810080916F00826080936F000DC0A9
:1002100080918100887F80938100809184009091FB
:10022000850090934B0180934A01BF91AF919F91BC
:100230008F917F916F915F910F900FBE0F901F90E4
:1002400018951F920F920FB60F9211242F938F9330
:100250009F9383B180937301809173018295817024
:10026000809374018091730183FB882780F98093C8
:100270004E0180914C0190914D011816190624F001
:1002800010924D0110924C0180914C0190914D01C2
:100290008139914024F010924D0110924C018091CF
:1002A000510181111FC020917401213059F48091B6
:1002B0004C0190914D01019690934D0180934C011A
:1002C0002093720180914E01813009F072C08091BB
:1002D0004C0190914D01019790934D0180934C01F9
:1002E00082E065C0809151018130F9F48091740100
:1002F00081110BC080914C0190914D010197909319
:100300004D0180934C011092720180914E01813019
:1003100009F04FC080914C0190914D01019690934E
:100320004D0180934C0183E042C0809151018230A5
:1003300001F580917401813061F480914C019091BC
:100340004D01019790934D0180934C0183E0809380
:10035000720180914E0181112CC080914C019091CD
:100360004D01019690934D0180934C0110927201C2
:1003700020C08091740181110CC080914C0190913A
:100380004D01019690934D0180934C0182E0809342
:10039000720180914E0181110CC080914C019091AD
:1003A0004D01019790934D0180934C0181E0809322
:1003B000720180917201809351019F918F912F91D1
:1003C0000F900FBE0F901F9018951F920F920FB6AF
:1003D0000F9211242F938F939F93EF93FF9320916C
:1003E000C6008091460190914701019781F4E09108
:1003F0004201F0914301E45AFE4F20838091420173
:1004000090914301019690934301809342012034DF
:1004100031F481E090E09093470180934601809110
:100420004601909147018130910571F4243261F4C5
:10043000109247011092460110924301109242011E
:100440009093450180934401FF91EF919F918F918B
:100450002F910F900FBE0F901F9018959BB19F701A
:100460009BB99BB1807F892B8BB9299A299A2998AE
:100470000895CF93C82F28980E942E028C2F829522
:10048000807F0E942E028FE39FE10197F1F700C069
:100490000000CF910895811102C080E801C080EC76
:1004A000860F0C9439028AB1806F8AB984B1836057
:1004B00084B98FE59AEE0197F1F700C0000083E060
:1004C0000E942E028FE19EE40197F1F700C0000028
:1004D00083E00E942E028FED91E00197F1F700C0BA
:1004E000000083E00E942E0282E00E942E028FE331
:1004F0009FE10197F1F700C0000088E20E943902F5
:100500008FE00C943902CF93C82F289A0E942E02B4
:100510008C2F8295807F0E942E028FE39FE10197AE
:10052000F1F700C00000CF910895CF93DF93EC0165
:100530008991882319F00E948302FACFDF91CF912D
:100540000895CF93DF93CDB7DEB7C056D1090FB66C
:10055000F894DEBF0FBECDBF87E690E00E948C000E
:1005600096E09093C2008091C10088618093C100A1
:100570008091C10080688093C1009093C2000E9466
:10058000530281E00E94390287B1826387B988B142
:100590008F7C88B9259A85B1886185B988B18C60CE
:1005A00088B95B9A8091680084608093680080912C
:1005B0006D00886080936D008091680081608093F9
:1005C000680080916B00886180936B0010926701D6
:1005D0001092660188EC90E00E940E0D90934D0100
:1005E00080934C0178949E01235C3F4F6F963FAF00
:1005F0002EAF6F972AE0C22ED12C33E3632E31E069
:10060000732ECE0101967C0107E311E0DE01A55AAD
:10061000BF4FA196BFAFAEAFA1975E01BFE1AB0EDA
:10062000B11C60E081E00E944B0282E191E00E94F7
:10063000950288EC90E00E940E0D909350018093FB
:100640004F0180914F01909150019F938F93A7E1AB
:10065000B1E0BF93AF931F928EE18F936F963FAD42
:100660006F973F936E968FAD6E978F930E943E0863
:10067000CE01CD960E94950260914C0170914D0182
:1006800088EC90E00E94140D8091660190916701C2
:100690000FB6F894DEBF0FBECDBF892B09F09FC106
:1006A000109249011092480160E080E00E944B02E4
:1006B0008BE191E00E949502329987C1329BFECF77
:1006C0000E94590060914A0170914B01882777FD83
:1006D0008095982F0E94270726E933E44BE85DE3D5
:1006E0000E948F0760937501709376018093770164
:1006F00090937801609175017091760180917701F6
:100700009091780120E030E048EC53E40E948B07A0
:100710006AE087FD23C080E00E944B0282E291E004
:100720000E9495026AE080E00E944B028EE291E016
:100730000E9495028FE08F9381EA8F931F930F930E
:100740001F9285E08F93A8E6B1E0BF93AF930E941C
:100750003E0888E691E00E9467003FC080E00E946A
:100760004B0286E291E00E949502609175017091C2
:1007700076018091770190917801209075013090F9
:100780007601409077015090780120E030E040E21F
:1007900051E40E948F070E94F406CB01B6010E942B
:1007A0008B069F938F93C201B1010E94F4067F9341
:1007B0006F937F926F921F928EE18F93BF92AF9251
:1007C0000E943E086AE080E00E944B02C5010E9440
:1007D000950286E291E00E9495020FB6F894DEBF82
:1007E0000FBECDBF0E94590060914A0170914B012C
:1007F000882777FD8095982F0E94270726E933E404
:100800004BE85DE30E948F0760937501709376015A
:1008100080937701909378016091750170917601D2
:10082000809177019091780120E030E048EC53E42A
:100830000E948B076AE087FD28C080E00E944B027F
:1008400082E291E00E9495026AE080E00E944B0201
:100850008EE291E00E9495028FE08F9381EA8F9360
:100860001F930F931F9285E08F93A8E6B1E0BF938B
:10087000AF930E943E0888E691E00E9467000FB6A1
:10088000F894DEBF0FBECDBFA0C080E00E944B0237
:100890008BE291E00E949502609175017091760162
:1008A00080917701909178012090750130907601C8
:1008B000409077015090780120E030E040E251E430
:1008C0000E948F070E94F406CB01B6010E948B069E
:1008D0009F938F93C201B1010E94F4067F936F939F
:1008E0007F926F921F928EE18F93FF92EF920E9400
:1008F0003E086AE080E00E944B02C7010E94950218
:1009000086E291E00E9495026091750170917601F6
:10091000809177019091780120E030E040E251E44D
:100920000E948F070E94F4067F936F931F930F938B
:100930001F9285E08F93A9E7B1E0BF93AF930E9428
:100940003E0889E791E00E946700A1963FADA1971C
:100950003F93A0968FADA0978F931F930F93ACE515
:10096000B1E0BF93AF930E946E086D968EAD9FADC0
:100970006D97B6010E948B064B01609175017091D5
:10098000760180917701909178010E94F4060FB66C
:10099000F894DEBF0FBECDBF681579051CF4459AEB
:1009A000449813C060917501709176018091770130
:1009B000909178010E94F4068616970621F488B17A
:1009C0008F7C88B902C0449A4598339908C0339BFC
:1009D000FECF21E030E030936701209366018091E3
:1009E000660190916701019709F00BC160E080E01A
:1009F0000E944B028AE391E00E949502339906C05F
:100A0000339BFECF1092670110926601329908C0A5
:100A1000329BFECF81E090E09093490180934801A2
:100A20008091480190914901019709F0EAC00E9424
:100A3000590060914A0170914B01882777FD80959C
:100A4000982F0E94270726E933E44BE85DE30E94D4
:100A50008F0760937501709376018093770190936F
:100A60007801609175017091760180917701909184
:100A7000780120E030E048EC53E40E948B076AE004
:100A8000181644F480E00E944B028EE291E00E942E
:100A90009502B7C080E00E944B0289E291E00E947B
:100AA0009502609175017091760180917701909126
:100AB0007801209075013090760140907701509038
:100AC000780120E030E040E251E40E948F070E946C
:100AD000F406CB01B6010E948B069F938F93C2014F
:100AE000B1010E94F4067F936F937F926F921F92E1
:100AF0009EE1992E9F92BF92AF920E943E086AE0BB
:100B000080E00E944B02C5010E94950286E291E0BE
:100B10000E9495020E94590060914A0170914B0118
:100B2000882777FD8095982F0E94270726E933E4D0
:100B30004BE85DE30E948F07609375017093760127
:100B4000809377019093780160917501709176019F
:100B50008091770190917801209075013090760115
:100B6000409077015090780120E030E040E251E47D
:100B70000E948F070E94F406CB01B6010E948B06EB
:100B80009F938F93C201B1010E94F4067F936F93EC
:100B90007F926F921F929F92FF92EF920E943E0867
:100BA0006AE080E00E944B02C7010E94950286E243
:100BB00091E00E949502609175017091760180919B
:100BC00077019091780120E030E040E251E40E940A
:100BD0008F070E94F4067F936F931F930F931F92CA
:100BE00085E08F93A2E5B1E0BF93AF930E943E08EA
:100BF00082E591E00E9467000FB6F894DEBF0FBE59
:100C0000CDBF8091440190914501019709F009CD34
:100C10006AE081E00E944B0287E291E00E94950227
:100C20006AE081E00E944B02BF92AF921F930F9344
:100C3000ACE5B1E0BF93AF930E946E088F8D98A191
:100C40000F900F900F900F900F900F90813A3FE010
:100C500093074CF06AE081E00E944B028EE291E043
:100C60000E94950253C0B6010E948B069F938F93FA
:100C70007F936F937F926F921F9286E08F93FF9284
:100C8000EF920E943E08C7010E9495028F8D98A1A5
:100C9000B6010E948B064B0160917501709176013F
:100CA00080917701909178010E94F4060FB6F89434
:100CB000DEBF0FBECDBF681579051CF4459A449878
:100CC00013C06091750170917601809177019091C8
:100CD00078010E94F4068616970621F488B18F7C6D
:100CE00088B902C0449A459820914C0130914D0139
:100CF0008F8D98A1B6010E948B066217730734F49A
:100D000080910801909109010E94A3001092450171
:100D10001092440186CC97FB072E16F4009407D05E
:100D200077FD09D00E94BE0607FC05D03EF49095E1
:100D300081959F4F0895709561957F4F0895052E79
:100D400097FB1EF400940E94B60657FD07D00E9440
:100D5000D20607FC03D04EF40C94B606509540958D
:100D6000309521953F4F4F4F5F4F08959095809557
:100D7000709561957F4F8F4F9F4F0895AA1BBB1BA6
:100D800051E107C0AA1FBB1FA617B70710F0A61B8B
:100D9000B70B881F991F5A95A9F780959095BC01AC
:100DA000CD010895A1E21A2EAA1BBB1BFD010DC0A7
:100DB000AA1FBB1FEE1FFF1FA217B307E407F5070B
:100DC00020F0A21BB30BE40BF50B661F771F881FE7
:100DD000991F1A9469F760957095809590959B017D
:100DE000AC01BD01CF01089504D06894B1118DC04C
:100DF000089570D088F09F5790F0B92F9927B75178
:100E0000A0F0D1F0660F771F881F991F1AF0BA95CE
:100E1000C9F712C0B13081F077D0B1E0089574C045
:100E2000672F782F8827B85F39F0B93FCCF38695C4
:100E300077956795B395D9F73EF490958095709521
:100E400061957F4F8F4F9F4F0895E89409C097FB9E
:100E50003EF490958095709561957F4F8F4F9F4F91
:100E60009923A9F0F92F96E9BB279395F6958795D5
:100E700077956795B795F111F8CFFAF4BB0F11F498
:100E800060FF1BC06F5F7F4F8F4F9F4F16C088233F
:100E900011F096E911C0772321F09EE8872F762F75
:100EA00005C0662371F096E8862F70E060E02AF0B6
:100EB0009A95660F771F881FDAF7880F96958795A2
:100EC00097F9089557FD9058440F551F59F05F3F0B
:100ED00071F04795880F97FB991F61F09F3F79F05C
:100EE00087950895121613061406551FF2CF4695DE
:100EF000F1DF08C0161617061806991FF1CF869560
:100F00007105610508940895E894BB276627772743
:100F1000CB0197F9089566D008F48FEF08950BD0B0
:100F20009CC08DD028F092D018F0952309F07EC097
:100F300083C01124EACFC6DFA0F3959FD1F3950FAC
:100F400050E0551F629FF001729FBB27F00DB11D4D
:100F5000639FAA27F00DB11DAA1F649F6627B00DDD
:100F6000A11D661F829F2227B00DA11D621F739FC6
:100F7000B00DA11D621F839FA00D611D221F749FD4
:100F80003327A00D611D231F849F600D211D822F1B
:100F9000762F6A2F11249F5750408AF0E1F0882362
:100FA0004AF0EE0FFF1FBB1F661F771F881F91506F
:100FB0005040A9F79E3F510570F038C0A6CF5F3F63
:100FC000ECF3983EDCF3869577956795B795F795A2
:100FD000E7959F5FC1F7FE2B880F911D969587952A
:100FE00097F90895990F0008550FAA0BE0E8FEEF56
:100FF00016161706E807F907C0F012161306E407DD
:10100000F50798F0621B730B840B950B39F40A26D5
:1010100061F0232B242B252B21F408950A2609F4B3
:10102000A140A6958FEF811D811D089597F99F67B7
:1010300080E870E060E008959FEF80EC0895002460
:101040000A941616170618060906089500240A942D
:1010500012161306140605060895092E0394000CB3
:1010600011F4882352F0BB0F40F4BF2B11F460FF42
:1010700004C06F5F7F4F8F4F9F4F0895AEE0B0E089
:10108000E4E4F8E00C945D0E0D891E898F89988D3B
:1010900026E02C831A83098397FF02C080E090E842
:1010A00001979E838D83AE01455E5F4F698D7A8D7A
:1010B000CE0101960E9487084D815E8157FD0AC0CE
:1010C0002F813885421753070CF49A01F801E20F7B
:1010D000F31F10822E96E4E00C94790EAEE0B0E09F
:1010E000E4E7F8E00C945F0E85E08C838B899C89A3
:1010F0009A838983AE01495E5F4F6D897E89CE01F7
:1011000001960E94D70B2E96E2E00C947B0EACE089
:10111000B0E0EDE8F8E00C944F0E7C016B018A0121
:10112000FC0117821682838181FFBDC1CE01019629
:101130004C01F7019381F60193FD859193FF819115
:101140006F01882309F4ABC1853239F493FD859191
:1011500093FF81916F01853229F4B70190E00E94DD
:10116000810DE7CF512C312C20E02032A0F48B32BE
:1011700069F030F4803259F0833269F420612CC078
:101180008D3239F0803339F4216026C0226024602A
:1011900023C0286021C027FD27C030ED380F3A302A
:1011A00078F426FF06C0FAE05F9E300D1124532E1E
:1011B00013C08AE0389E300D1124332E20620CC0FB
:1011C0008E3221F426FD6BC1206406C08C3611F4EA
:1011D000206802C0883641F4F60193FD859193FFA3
:1011E00081916F018111C1CF982F9F7D95549330CC
:1011F00028F40C5F1F4FFFE3F9830DC0833631F0F5
:10120000833771F0833509F05BC022C0F80180811B
:1012100089830E5F1F4F44244394512C540115C001
:101220003801F2E06F0E711CF801A080B18026FF3A
:1012300003C0652D70E002C06FEF7FEFC5012C8702
:101240000E94380D2C0183012C852F77222E17C088
:101250003801F2E06F0E711CF801A080B18026FF0A
:1012600003C0652D70E002C06FEF7FEFC5012C87D2
:101270000E942D0D2C012C852068222E830123FC39
:101280001BC0832D90E048165906B0F4B70180E2E8
:1012900090E00E94810D3A94F4CFF50127FC8591EE
:1012A00027FE81915F01B70190E00E94810D31100E
:1012B0003A94F1E04F1A51084114510471F7E5C016
:1012C000843611F0893639F5F80127FF07C06081AF
:1012D0007181828193810C5F1F4F08C06081718191
:1012E000882777FD8095982F0E5F1F4F2F76B22E9F
:1012F00097FF09C090958095709561957F4F8F4FAE
:101300009F4F2068B22E2AE030E0A4010E94CC0D4D
:10131000A82EA81844C0853729F42F7EB22E2AE0C3
:1013200030E025C0F22FF97FBF2E8F36C1F018F4C0
:10133000883579F0B4C0803719F0883721F0AFC014
:101340002F2F2061B22EB4FE0DC08B2D8460B82EDD
:1013500009C024FF0AC09F2F9660B92E06C028E05E
:1013600030E005C020E130E002C020E132E0F801C9
:10137000B7FE07C060817181828193810C5F1F4F2E
:1013800006C06081718180E090E00E5F1F4FA40174
:101390000E94CC0DA82EA818FB2DFF77BF2EB6FEFD
:1013A0000BC02B2D2E7FA51450F4B4FE0AC0B2FC46
:1013B00008C02B2D2E7E05C07A2C2B2D03C07A2C35
:1013C00001C0752C24FF0DC0FE01EA0DF11D8081C6
:1013D000803311F4297E09C022FF06C073947394F0
:1013E00004C0822F867809F0739423FD13C020FF78
:1013F00006C05A2C731418F4530C5718732C73141A
:1014000068F4B70180E290E02C870E94810D73940C
:101410002C85F5CF731410F4371801C0312C24FF3C
:1014200012C0B70180E390E02C870E94810D2C85CB
:1014300022FF17C021FF03C088E590E002C088E7C3
:1014400090E0B7010CC0822F867859F021FD02C0D0
:1014500080E201C08BE227FD8DE2B70190E00E949F
:10146000810DA51438F4B70180E390E00E94810D4E
:101470005A94F7CFAA94F401EA0DF11D8081B701C7
:1014800090E00E94810DA110F5CF332009F451CED8
:10149000B70180E290E00E94810D3A94F6CFF70107
:1014A0008681978102C08FEF9FEF2C96E2E10C942A
:1014B0006B0E20FD09C0FC0123FD05C022FF02C008
:1014C0007383628351834083089544FD10C046FDB9
:1014D00010C0DB01FC01AA0FBB1FEE1FFF1F109401
:1014E000D1F76A0F7B1F8E1F9F1F31E003C033E0CF
:1014F00001C034E0660F771F881F991F3150D1F764
:10150000620F711D811D911D08950F931F93CF933D
:10151000DF938C01C8010E94430DEC0197FD08C0C8
:101520000E941A0D892BB1F7B801CE010E94B30DAC
:10153000CE01DF91CF911F910F9108958F929F92CD
:10154000AF92CF92DF92EF92FF920F931F93CF93C0
:10155000DF93EC01A62E4A01022F0E94430DAC013D
:1015600055274B32510521F04D32510551F4006899
:10157000AA9411F480E067C0CE010E94430D97FD4C
:10158000F9CF102F1D7F302F307301F58033F1F428
:10159000FF24FA94FA0C09F442C0CE010E94430DD4
:1015A00097FD3DC0382F3F7D383551F41264AA9421
:1015B000AA94A9F1CE010E94430D97FF07C02FC046
:1015C00006FF02C0126001C01261AF2CC12CD12CE9
:1015D000760120ED280F283080F014FF04C0BE01F2
:1015E0000E94B30D19C02A3040F016FFF8CF2F7DAE
:1015F0003FEE320F363098F72750412FC701B60122
:101600000E94650A6B017C011260AA9459F0CE0118
:101610000E94430D97FFDDCF11FD04C0ABCFC12C5D
:10162000D12C760117FF08C0F094E094D094C094B8
:10163000C11CD11CE11CF11C212FB701A601C40162
:101640000E94590A81E0DF91CF911F910F91FF9085
:10165000EF90DF90CF90AF909F908F900895A1E290
:10166000B0E0E5E3FBE00C94540E5C017A018E01DE
:101670000F5F1F4F680180E2D8011D928A95E9F73C
:10168000F501738040E050E0812CB0E0912C81E0C6
:1016900090E0F90173FCA59173FEA1918F017A2F5F
:1016A0009F01A11103C080E090E07DC0AE3519F428
:1016B0004115510559F1E92DF0E0E417F5073CF427
:1016C000AD3569F1AD3219F4BB2319F103C0B11185
:1016D00001C08A2EE72FE695E695E69586010E0F66
:1016E000111DF801A72FA7708C0102C0000F111F58
:1016F000AA95E2F7D801B081BA2BB083781559F0DA
:10170000781510F47F5FE6CF7150E4CF992493945D
:1017100003C0B1E001C0B0E04F5F5F4FBACFBB2361
:1017200019F08E8180628E83911003C09924939466
:1017300015C0F601CE018196208120952193E817EE
:10174000F907D1F7F3CFE114F10429F0D7018C9315
:10175000F70131967F01615001F1912CC50169A318
:101760000E94430D69A197FD16C0282F2695269546
:101770002695F601E20FF11D208130E0AC014770A3
:10178000552702C0359527954A95E2F720FDDBCF16
:10179000B5010E94B30D911086CFE114F10411F050
:1017A000D7011C92C801A196EDE00C94700E4F92E7
:1017B0005F927F928F929F92AF92BF92CF92DF9271
:1017C000EF92FF920F931F93CF93DF931F92CDB7AA
:1017D000DEB78C012B017A01FC0117821682A12C45
:1017E000F801D380F201D3FC8591D3FE8191382F8B
:1017F0002F01882309F4FCC090E039830E941A0D60
:101800003981892B21F0C8010E94850AE9CF353240
:1018100041F4F201D3FC3591D3FE31912F013532E1
:1018200069F4C80139830E94430D398197FDDEC0F8
:101830003817B1F2B8010E94B30DDAC03A3241F460
:10184000D3FC3591D3FE31912F01BB24B39401C059
:10185000B12C712C20ED230F2A3090F4FB2DF26077
:10186000BF2E672D70E080E090E040E20E94650AA4
:10187000762EF201D3FC3591D3FE31912F01EACFC0
:10188000B1FE03C0711003C0B3C077247A94383618
:1018900019F03C3661F014C0F201D3FC3591D3FE4F
:1018A00031912F01383661F4FB2DF860BF2E8B2D5E
:1018B0008460B82EF201D3FC3591D3FE31912F0113
:1018C000332309F495C0632F70E088E690E03983F4
:1018D0000E94220D3981892B09F48AC0B0FC07C00F
:1018E000F701C080D180C70102967C0102C0C12CE3
:1018F000D12C3E3651F4F8014681578160E070E00A
:101900002B2DC6010E94590A6BCF3336A1F4B1FCCE
:1019100002C077247394C8010E94430D97FD66C0EE
:10192000C114D10429F0F6018083C60101966C012F
:101930007A9489F757C03B3559F49201A601672D77
:10194000C8010E942F0B2C01009709F04BC045C025
:10195000C80139830E94850A398197FD47C03F3607
:1019600069F128F4343631F1393679F12BC0333747
:1019700069F03537F9F026C0C114D10429F0F60119
:101980008082C60101966C017A9471F0C8010E94B0
:10199000430D4C0197FD08C00E941A0D892B61F37D
:1019A000B801C4010E94B30DC114D104D9F0F601ED
:1019B000108218C0FB2DF062BF2E07C08B2D8061F6
:1019C000B82E03C09B2D9064B92E2B2DA601672D38
:1019D000C8010E949E0A811105C0F80183818073AD
:1019E00029F406C0B0FCFCCEA394FACEAA2019F0CC
:1019F0008A2D90E002C08FEF9FEF0F90DF91CF9183
:101A00001F910F91FF90EF90DF90CF90BF90AF901C
:101A10009F908F907F905F904F900895A8E1B0E0E5
:101A200042E050E00C942C0E0196272F0E943B0EB2
:101A30000C943A0E911130C1803219F089508550C2
:101A4000D0F70895FC010590061621F00020D9F783
:101A5000C00108953197CF010895FC0105906150B0
:101A600070400110D8F7809590958E0F9F1F0895B4
:101A7000FC016150704001900110D8F7809590955D
:101A80008E0F9F1F0895CF93DF93EC012B8120FFD2
:101A900033C026FF0AC02F7B2B838E819F81019646
:101AA0009F838E838A8190E029C022FF0FC0E88146
:101AB000F9818081992787FD9095009719F420621C
:101AC0002B831AC03196F983E8830EC0EA85FB8523
:101AD000099597FF09C02B81019611F480E101C09F
:101AE00080E2822B8B8308C02E813F812F5F3F4F86
:101AF0003F832E83992702C08FEF9FEFDF91CF9115
:101B000008950F931F93CF93DF93182F092FEB01A5
:101B10008B8181FD03C08FEF9FEF20C082FF10C03B
:101B20004E815F812C813D81421753077CF4E8810F
:101B3000F9819F012F5F3F4F39832883108306C0AF
:101B4000E885F985812F0995892B29F72E813F8119
:101B50002F5F3F4F3F832E83812F902FDF91CF91B7
:101B60001F910F910895FB01238120FF12C026FDD4
:101B700010C08F3F3FEF930761F082832F7D206479
:101B80002383268137812150310937832683992782
:101B900008958FEF9FEF0895FA01AA27283051F199
:101BA000203181F1E8946F936E7F6E5F7F4F8F4F8E
:101BB0009F4FAF4FB1E03ED0B4E03CD0670F781FED
:101BC000891F9A1FA11D680F791F8A1F911DA11DD2
:101BD0006A0F711D811D911DA11D20D009F468940B
:101BE0003F912AE0269F11243019305D3193DEF6B3
:101BF000CF010895462F4770405D4193B3E00FD069
:101C0000C9F7F6CF462F4F70405D4A3318F0495D53
:101C100031FD4052419302D0A9F7EACFB4E0A69536
:101C20009795879577956795BA95C9F70097610558
:101C3000710508959B01AC010A2E069457954795AE
:101C400037952795BA95C9F7620F731F841F951FA3
:101C5000A01D0895DC01CB01FC01F999FECF06C05F
:101C6000F2BDE1BDF89A319600B40D92415050405A
:101C7000B8F70895262FF999FECF92BD81BDF89A45
:101C8000019700B4021639F01FBA20BD0FB6F894C0
:101C9000FA9AF99A0FBE08959927882708952F92E6
:101CA0003F924F925F926F927F928F929F92AF92EC
:101CB000BF92CF92DF92EF92FF920F931F93CF9339
:101CC000DF93CDB7DEB7CA1BDB0B0FB6F894DEBFD0
:101CD0000FBECDBF09942A88398848885F846E84F6
:101CE0007D848C849B84AA84B984C884DF80EE8040
:101CF000FD800C811B81AA81B981CE0FD11D0FB649
:101D0000F894DEBF0FBECDBFED010895F894FFCF6C
:101D10000100060126014A015D018801B801EE01BA
:101D20000B024D696E3A002532640053696E676C90
:101D300065002020202020202020202020003E346C
:101D40003030002533642E2564005265706561745F
:021D5000000091
:00000001FF
